{
  "_format": "hh-sol-artifact-1",
  "contractName": "TokenSale",
  "sourceName": "contracts/TokenSale.sol",
  "abi": [
    {
      "inputs": [
        {
          "internalType": "address",
          "name": "_tokenAddress",
          "type": "address"
        },
        {
          "internalType": "uint256",
          "name": "_totalSupply",
          "type": "uint256"
        }
      ],
      "stateMutability": "nonpayable",
      "type": "constructor"
    },
    {
      "anonymous": false,
      "inputs": [
        {
          "indexed": true,
          "internalType": "address",
          "name": "buyer",
          "type": "address"
        },
        {
          "indexed": false,
          "internalType": "uint256",
          "name": "amount",
          "type": "uint256"
        },
        {
          "indexed": false,
          "internalType": "uint256",
          "name": "price",
          "type": "uint256"
        }
      ],
      "name": "TokensPurchased",
      "type": "event"
    },
    {
      "inputs": [],
      "name": "SALE_DURATION",
      "outputs": [
        {
          "internalType": "uint256",
          "name": "",
          "type": "uint256"
        }
      ],
      "stateMutability": "view",
      "type": "function"
    },
    {
      "inputs": [
        {
          "internalType": "uint256",
          "name": "amountTokens",
          "type": "uint256"
        }
      ],
      "name": "buyTokens",
      "outputs": [],
      "stateMutability": "payable",
      "type": "function"
    },
    {
      "inputs": [
        {
          "internalType": "uint256",
          "name": "amountTokens",
          "type": "uint256"
        }
      ],
      "name": "getTokenPrice",
      "outputs": [
        {
          "internalType": "uint256",
          "name": "",
          "type": "uint256"
        }
      ],
      "stateMutability": "view",
      "type": "function"
    },
    {
      "inputs": [],
      "name": "startTime",
      "outputs": [
        {
          "internalType": "uint256",
          "name": "",
          "type": "uint256"
        }
      ],
      "stateMutability": "view",
      "type": "function"
    },
    {
      "inputs": [],
      "name": "token",
      "outputs": [
        {
          "internalType": "contract Token",
          "name": "",
          "type": "address"
        }
      ],
      "stateMutability": "view",
      "type": "function"
    },
    {
      "inputs": [],
      "name": "tokensSold",
      "outputs": [
        {
          "internalType": "uint256",
          "name": "",
          "type": "uint256"
        }
      ],
      "stateMutability": "view",
      "type": "function"
    },
    {
      "inputs": [],
      "name": "totalSupply",
      "outputs": [
        {
          "internalType": "uint256",
          "name": "",
          "type": "uint256"
        }
      ],
      "stateMutability": "view",
      "type": "function"
    }
  ],
  "bytecode": "0x608060405262278d0060015534801561001757600080fd5b50604051610b45380380610b4583398181016040528101906100399190610127565b816000806101000a81548173ffffffffffffffffffffffffffffffffffffffff021916908373ffffffffffffffffffffffffffffffffffffffff16021790555080600481905550426002819055505050610167565b600080fd5b600073ffffffffffffffffffffffffffffffffffffffff82169050919050565b60006100be82610093565b9050919050565b6100ce816100b3565b81146100d957600080fd5b50565b6000815190506100eb816100c5565b92915050565b6000819050919050565b610104816100f1565b811461010f57600080fd5b50565b600081519050610121816100fb565b92915050565b6000806040838503121561013e5761013d61008e565b5b600061014c858286016100dc565b925050602061015d85828601610112565b9150509250929050565b6109cf806101766000396000f3fe6080604052600436106100705760003560e01c80636d79207c1161004e5780636d79207c146100e757806378e9792514610112578063c457fb371461013d578063fc0c546a1461017a57610070565b806318160ddd146100755780633610724e146100a0578063518ab2a8146100bc575b600080fd5b34801561008157600080fd5b5061008a6101a5565b60405161009791906104ed565b60405180910390f35b6100ba60048036038101906100b59190610539565b6101ab565b005b3480156100c857600080fd5b506100d1610447565b6040516100de91906104ed565b60405180910390f35b3480156100f357600080fd5b506100fc61044d565b60405161010991906104ed565b60405180910390f35b34801561011e57600080fd5b50610127610453565b60405161013491906104ed565b60405180910390f35b34801561014957600080fd5b50610164600480360381019061015f9190610539565b610459565b60405161017191906104ed565b60405180910390f35b34801561018657600080fd5b5061018f6104b0565b60405161019c91906105e5565b60405180910390f35b60045481565b6001546002546101bb919061062f565b4211156101fd576040517f08c379a00000000000000000000000000000000000000000000000000000000081526004016101f4906106c0565b60405180910390fd5b600260045461020c919061070f565b8160035461021a919061062f565b111561025b576040517f08c379a00000000000000000000000000000000000000000000000000000000081526004016102529061078c565b60405180910390fd5b600061026682610459565b9050803410156102ab576040517f08c379a00000000000000000000000000000000000000000000000000000000081526004016102a2906107f8565b60405180910390fd5b81600360008282546102bd919061062f565b9250508190555060008054906101000a900473ffffffffffffffffffffffffffffffffffffffff1673ffffffffffffffffffffffffffffffffffffffff166323b872dd60008054906101000a900473ffffffffffffffffffffffffffffffffffffffff1673ffffffffffffffffffffffffffffffffffffffff16638da5cb5b6040518163ffffffff1660e01b8152600401602060405180830381865afa15801561036b573d6000803e3d6000fd5b505050506040513d601f19601f8201168201806040525081019061038f9190610856565b33856040518463ffffffff1660e01b81526004016103af93929190610892565b6020604051808303816000875af11580156103ce573d6000803e3d6000fd5b505050506040513d601f19601f820116820180604052508101906103f29190610901565b503373ffffffffffffffffffffffffffffffffffffffff167f8fafebcaf9d154343dad25669bfa277f4fbacd7ac6b0c4fed522580e040a0f33838360405161043b92919061092e565b60405180910390a25050565b60035481565b60015481565b60025481565b6000806004805461046a919061070f565b90506000818460035461047d919061062f565b116104965760058461048f9190610957565b90506104a6565b600a846104a39190610957565b90505b8092505050919050565b60008054906101000a900473ffffffffffffffffffffffffffffffffffffffff1681565b6000819050919050565b6104e7816104d4565b82525050565b600060208201905061050260008301846104de565b92915050565b600080fd5b610516816104d4565b811461052157600080fd5b50565b6000813590506105338161050d565b92915050565b60006020828403121561054f5761054e610508565b5b600061055d84828501610524565b91505092915050565b600073ffffffffffffffffffffffffffffffffffffffff82169050919050565b6000819050919050565b60006105ab6105a66105a184610566565b610586565b610566565b9050919050565b60006105bd82610590565b9050919050565b60006105cf826105b2565b9050919050565b6105df816105c4565b82525050565b60006020820190506105fa60008301846105d6565b92915050565b7f4e487b7100000000000000000000000000000000000000000000000000000000600052601160045260246000fd5b600061063a826104d4565b9150610645836104d4565b925082820190508082111561065d5761065c610600565b5b92915050565b600082825260208201905092915050565b7f546f6b656e2073616c652063616d706169676e2069732073746f707065640000600082015250565b60006106aa601e83610663565b91506106b582610674565b602082019050919050565b600060208201905081810360008301526106d98161069d565b9050919050565b7f4e487b7100000000000000000000000000000000000000000000000000000000600052601260045260246000fd5b600061071a826104d4565b9150610725836104d4565b925082610735576107346106e0565b5b828204905092915050565b7f427579696e6720746f6b656e732069732073746f707065640000000000000000600082015250565b6000610776601883610663565b915061078182610740565b602082019050919050565b600060208201905081810360008301526107a581610769565b9050919050565b7f496e73756666696369656e74204554482073656e740000000000000000000000600082015250565b60006107e2601583610663565b91506107ed826107ac565b602082019050919050565b60006020820190508181036000830152610811816107d5565b9050919050565b600061082382610566565b9050919050565b61083381610818565b811461083e57600080fd5b50565b6000815190506108508161082a565b92915050565b60006020828403121561086c5761086b610508565b5b600061087a84828501610841565b91505092915050565b61088c81610818565b82525050565b60006060820190506108a76000830186610883565b6108b46020830185610883565b6108c160408301846104de565b949350505050565b60008115159050919050565b6108de816108c9565b81146108e957600080fd5b50565b6000815190506108fb816108d5565b92915050565b60006020828403121561091757610916610508565b5b6000610925848285016108ec565b91505092915050565b600060408201905061094360008301856104de565b61095060208301846104de565b9392505050565b6000610962826104d4565b915061096d836104d4565b925082820261097b816104d4565b9150828204841483151761099257610991610600565b5b509291505056fea26469706673582212205670d0ae454b01f6979c5aad66f76250adade108f26a38f80b55e7f91ec7bb6364736f6c634300081c0033",
  "linkReferences": {},
  "deployedLinkReferences": {}
}